:020000040800F2
:100000001805002001010008A70B0008170A0008C6
:10001000A50B0008D9080008151000080000000012
:10002000000000000000000000000000CD0C0008EF
:10003000DB08000800000000210C0008910D0008FA
:100040001B0100081B0100081B0100081B01000820
:100050001B0100081B0100081B0100081B01000810
:100060001B0100081B0100081B0100081B01000800
:100070001B0100081B0100081B0100081B010008F0
:100080001B0100081B0100081B0100081B010008E0
:100090001B0100081B0100081B0100081B010008D0
:1000A0001B0100081B0100081B0100081B010008C0
:1000B000E50D00081B0100081B0100081B010008DA
:1000C0001B0100081B0100081B0100081B010008A0
:1000D0001B010008A10E00081B0100081B010008FD
:1000E0001B0100081B0100081B010008DFF80CD0F1
:1000F00000F0D0FB004800470D2100081805002043
:100100000648804706480047FEE7FEE7FEE7FEE7B1
:10011000FEE7FEE7FEE7FEE7FEE7FEE7950D0008D7
:10012000ED000008F0B480EA0102D40F4200B2EB07
:10013000410F02D20246084611464A0042D0C30D82
:10014000DDB2C1F3C752AD1A202D35DAC1F3160165
:1001500041F4000204B15242C5F1200602FA06F150
:100160002A411044B3EBD05F23D0C4B1012DA0EBE2
:10017000C35009DCF0BC4FF0004202EAC352DBB2CC
:1001800000F5000000F0B3BA400000F1807000EB11
:10019000C350A0F1807040EAD170490009E04908DD
:1001A00041EAC071A0EBC35000F50000400800EB2D
:1001B000C350F0BC00F092BA6142012202EB41014F
:1001C000001BF6E7F0BC704781F00041AAE780F021
:1001D0000040A7E780EA010210B502F000434000AA
:1001E00022D04A001FD0010E01EB1261C0F356006D
:1001F000C2F3560240F4000042F40002A0FB0220C9
:1002000000047F39140400D0401C50EA124001D48D
:100210004000491EC2B20C0604EBD010401C40083E
:10022000802A02D003E0002010BD20F00100002948
:1002300000DA0020184310BD2DE9FE4F804681EA08
:100240000300C00F0C46009021F0004123F0004550
:10025000B8EB0200A94105D24046214690461C4613
:100260000B46024623F00040104347D0270DC7F34A
:100270000A00C3F30A510290401A019040286BDA39
:10028000C3F3130040F4801B0098924620B1002372
:10029000D2EB030A63EB0B0B01985946C0F1400205
:1002A000504600F0FAF906460D4650465946019A66
:1002B00000F002FA10EB08006141002487EA1152B5
:1002C00084EAE7731A4340D0009A62B3019A012A84
:1002D0004FEA075215DC001B61EB02014FF00042B0
:1002E00002EA0752CDE90042001C41F58011324676
:1002F0002B4600F039FA03B0BDE8F08F40462146A6
:10030000F9E7001B61EB0201001C41F580130018A6
:100310005B412018A2F5001747EB030140EAD570B6
:10032000B6196D4111E06D084FEA360645EAC07511
:100330004FEA0752001B61EB0201001C41F58011DE
:1003400049084FEA30000019514132462B4603B0AC
:10035000BDE8F04F00F0F9B90098012240000023F9
:10036000D0EB020263EBE073009821464FEAE074A1
:10037000B8EB000061EB0401E9E783F000435BE7C1
:1003800081F0004158E72DE9FE4F81EA030404F0B3
:10039000004421F0004100944FF0000B23F0004393
:1003A00050EA01045ED052EA03045BD0C3F30A545E
:1003B000C1F30A552C44A4F2F3340194A0FB025477
:1003C000C1F3130141F48011C3F3130343F4801309
:1003D00001FB024400FB034E840A970A44EA81545D
:1003E00047EA8357A4FB076802958D0A05FB07853A
:1003F0004FEA932C04FB0C542705029D4FEA065844
:1004000047EA1637B5EB08056EEB070C870E920E20
:1004100047EA811742EA8312A7FB0201B6EB0B0100
:1004200064EB00042B0D43EA0C335E1844EB1C50C4
:10043000DA465146E7FB0201C5F313044FEA0B33DA
:1004400043EA14534FEA0432019C43EA0603A4F141
:100450000C040294009CCDE900B400F085F903B0CF
:10046000BDE8F08F00200146F9E72DE9F04D81EA63
:10047000030404F0004B21F0004514464FF0000A3D
:1004800023F0004150EA050220D054EA01021DD0B9
:10049000C5F30A570246C5F31303C1F31300C1F3B2
:1004A0000A5640F4801543F48013A7EB0608101B8E
:1004B000D64608F2FD3873EB050002D308F10108B7
:1004C00001E092185B41B8F1000F03DA0020014609
:1004D000BDE8F08D00204FF48011064684460EE002
:1004E000171B73EB050705D3121B63EB05030643CC
:1004F0004CEA010C49084FEA300092185B4150EA7F
:100500000107EDD152EA030012D082EA040083EA27
:100510000501084305D0101BAB4106D20122002380
:1005200006E000224FF0004302E06FF0010253109A
:100530001AEB06004CEB085110EB0A0041EB0B01E3
:10054000BDE8F04D00F001B9C10F80EAE070084449
:10055000CA079623002100F0CAB80EB5C10F80EA81
:10056000E0700844CA07002140F233438DE80E00D2
:100570000A460B4600F0F8F803B000BD00F0004258
:1005800020F00040C10DC0F3160040F400007F29A8
:1005900001DA00207047962903DCC1F19601C840BA
:1005A00001E096398840002AF4D04042704700F0BC
:1005B000004230F000400AD0C10D01F56071C0F377
:1005C000160042EA0151C20840071143704700205B
:1005D0000146704701F0004330B421F0004150EA79
:1005E000010206D00A0DA2F56072C1F31301002AC0
:1005F00002DC30BC00207047440F44EAC104C10053
:10060000E01830BC00EBC25000F068B830B50B46C3
:10061000014600202022012409E021FA02F59D4232
:1006200005D303FA02F5491B04FA02F52844151E06
:10063000A2F10102F1DC30BD2DE9F05F054600209A
:1006400092469B4688460646814640241BE0284643
:1006500041464746224600F02FF953465A46C01AF3
:10066000914110D311461846224600F016F82D1A73
:1006700067EB01084F4622460120002100F00DF8EB
:1006800017EB00094E41201EA4F10104DFDC4846AF
:1006900031462A464346BDE8F09F202A04DB203A33
:1006A00000FA02F1002070479140C2F1200320FAC5
:1006B00003F3194390407047202A06DBCB17203AFA
:1006C00041FA02F043EAE07306E041FA02F3D04057
:1006D000C2F1200291400843194670470029A8BF83
:1006E0007047401C490008BF20F00100704710B45B
:1006F000B0FA80FC00FA0CF050EA010404BF10BC10
:10070000704749B1CCF1200421FA04F411FA0CF13C
:1007100018BF012121430843A3EB0C01CB1D4FEA75
:1007200000614FEA102042BF002010BC704700EB70
:10073000C35010440029A4BF10BC7047401C49009E
:1007400008BF20F0010010BC704710B5141E73F1F3
:10075000000408DA401C41F1000192185B411A4381
:1007600001D120F0010010BD2DE9F04D92469B46CD
:1007700011B1B1FA81F202E0B0FA80F22032904673
:10078000FFF78BFF04460F4640EA0A0041EA0B01DF
:1007900053465A46084313D0114653EA010019D074
:1007A000C8F14002504600F087F805460E46504614
:1007B00059464246FFF771FF084305D0012004E087
:1007C00020463946BDE8F08D0020054346EAE07634
:1007D0002C4337430A986305E40AA0EB0800002283
:1007E000FD0A44EA47540A3002D500200146E9E7F1
:1007F000010510196941DDE9084500196941BDE8A5
:10080000F04DA2E770B521F0004303430CD0C1F3D3
:100810000A550024D5EB040564EB0403D617AD1A82
:10082000B34102DB0020014670BD201841EB0251AC
:1008300070BDC1F30A52C1F3130140F2FF3341F41A
:1008400080119A4202DA00200146704740F2334399
:100850009A42A2F2334202DC524200F02DB8FFF776
:100860001CBF000030B5041E71F1000404DB4FF022
:100870000044404264EB0101141E73F1000405DBE7
:100880001C464FF00043524263EB0403994208BFF9
:10089000904230BD064C074D06E0E06840F0010391
:1008A00094E8070098471034AC42F6D3FFF722FCD7
:1008B0001028000830280008202A04DB203A21FAFA
:1008C00002F00021704721FA02F3D040C2F1200269
:1008D0009140084319467047FEE7704710B5054C34
:1008E000204600F08FFBC1B22046BDE8104000F06A
:1008F0008DBB0000003801400149086070470000CE
:1009000014040140F0B5CA78002502F00F03D206A6
:1009100001D58A7813430A784FF00F0E12F0FF0FBB
:100920004FF001021CD004680F8802FA05F6374028
:10093000B74211D14FEA850C0EFA0CF724EA0707EB
:1009400003FA0CF43C43CF78282F02D0482F02D072
:1009500002E0466100E006616D1C082DE4D30460EE
:100960000C88FF2C1ED944685FF0000606F10807CA
:1009700002FA07F50F882F40AF420FD14FEA860CDD
:100980000EFA0CF7BC4303FA0CF73C43CF78282F40
:1009900000D14561CF78482F00D10561761C082E23
:1009A000E4D34460F0BD0000F0B5144C002801DA37
:1009B000E36900E06368420D120185B2C0F301579C
:1009C0009540C0F30346032F05D0C2020AD5032287
:1009D000B240934307E023F07062636823F07063D2
:1009E000636002E0AB4343F0706201B12A43002828
:1009F00001DAE261F0BD6260F0BD0000000001407C
:100A00000246002092680A4200D0012070474161EE
:100A1000704701617047FEE72DE9FF5F96B024AD96
:100A2000044695E88301D4E9082308930692FFF76A
:100A3000A4FC3A464346FFF7A6FCD4E90623FFF799
:100A4000FBFB07911290D4E910A352463846414669
:100A50000993FFF798FCCDE90001D4E90C939B467C
:100A60004A46FFF78AFCD4E90E23CDE90B32FFF7A3
:100A700084FCD4E90023FFF7DFFB3A464346FFF747
:100A800082FCD4E90A23FFF7D7FB05460E46DDE9D1
:100A900000014A465B46FFF773FC8B460490DDE994
:100AA0000001DDE90B32FFF76BFC0D910090D4E9FA
:100AB00002013A464346FFF766FC5246099BFFF7A0
:100AC000BBFBCDE90E01D4E9042328463146FFF7EC
:100AD000B3FB80468A4602460B4628463146FFF75E
:100AE000C4FC81460F46424653460D990098FFF7D5
:100AF000BCFC80468A46DDE91801079B129AFFF785
:100B00003CFC0B914A463B461090FFF73CFC079B90
:100B1000129AFFF791FBC4E9060107911290404633
:100B200051460B9B109AFFF72EFC089B069AFFF785
:100B300083FBC4E90801049806902A4633464846D8
:100B40003946FFF720FC2A463346FFF719FCC4E973
:100B50000A015B4648463946069AFFF714FC5B4695
:100B6000049AFFF70DFCC4E90C012A4633464046BF
:100B70005146FFF708FC0D9B009AFFF701FCC4E902
:100B80000E015B4640465146069AFFF7FCFBDDE945
:100B90000E23FFF7F5FBC4E91001079912981AB06C
:100BA000BDE8F09FFEE7704770B50F23C478017869
:100BB0000122F4B1144C2468457804F4E064C4F5CF
:100BC000E064240AC4F10406E3408478B5401C4084
:100BD0002C4301F1E021230181F80034007800F07A
:100BE0001F018A404009800000F1E020C0F8002188
:100BF00070BD01F01F0082404809800000F1E02034
:100C0000C0F8802170BD00000CED00E002490843EF
:100C100002490860704700000000FA050CED00E092
:100C200070470000044A0029916901D0014300E0A7
:100C300081439161704700000010024030B51F49A8
:100C40004A6812F00C031E4A03D0042B01D0082B73
:100C500021D002604A680F231A4C03EA1212A35CE7
:100C60000268DA4042604B68072505EA1323E35C1B
:100C700022FA03F383604B6805EAD323E35CDA408E
:100C8000C2604968032303EA9131231F595CB2FB18
:100C9000F1F1016130BD4A684B6802F470124FF007
:100CA000020413F4803F04EB924202D04B689B0392
:100CB00001D5054B00E0024B5A43CAE70010024041
:100CC00000127A002000002000093D00704700005B
:100CD0000CB50021264801910091026842F480324F
:100CE00002604FF4A063026802F400320092019A9D
:100CF000521C0192009A12B9019A9A42F3D10268E9
:100D0000920333D5012100911A490A6842F010027A
:100D10000A600A6822F003020A600A6842F00202CE
:100D20000A604168416041684160416841F4806106
:100D30004160416821F47C114160416841F4E8114F
:100D40004160016841F08071016001688901FCD552
:100D5000416821F003014160416841F002014160B6
:100D60004168C1F381010229FAD10CBD00910CBD8B
:100D700000100240002002404FF0E02104280869E2
:100D800003D020F004000861704740F00400FAE747
:100D9000704700000F4810B5016841F00101016083
:100DA00041680D4A1140416001680C4A11400160E0
:100DB000016821F480210160416821F4FE01416055
:100DC0004FF41F018160FFF783FF05494FF000607A
:100DD000086010BD001002400000FFF8FFFFF6FEA3
:100DE00008ED00E070B5204C4FF0804520780006FB
:100DF00033D40121284600F03EF838B12178480666
:100E000004D5C843800612D0491C2170022128460F
:100E100000F031F808B3207841060FD540F080008B
:100E20002070284600F025F86080002112E041F093
:100E3000800020704FF6FF706080E7E70020207090
:100E400060800146284600F028F82078022140F012
:100E500040002070284600F01AF82846BDE870408F
:100E6000032100F003B8000018000020C9430182EC
:100E70007047808E704702460020138A92890B4289
:100E800002EA010202D0002A00D001207047028C41
:100E900022F002020A4302847047818470470000F6
:100EA00010B540F225542146064800F01EF80028EF
:100EB00006D0FFF713FD2046BDE81040FFF71CBD2C
:100EC00010BD0000003801400029818902D041F4A2
:100ED000005101E021F40051818170470246002059
:100EE00012880A4200D00120704730B501F01F027D
:100EF00001240025C1F3421304FA02F2012B0FD0A2
:100F0000022B0FD0838A4FEA11210088134204FA82
:100F100001F400EA040001D000B10125284630BDEB
:100F20008389F0E7038AEEE710B5C1F3421301F0BD
:100F30001F040121A140012B07D0022B07D0143040
:100F4000002A026805D00A4304E00C30F8E71030AC
:100F5000F6E78A43026010BD30B50446008A85B0CA
:100F60000D464CF6FF710840E98801432182A189B2
:100F70004EF6F3100140A8882A8910436A890A4373
:100F80001043A081A08A4FF6FF410840A989014380
:100F9000A1826846FFF752FE1948844201D10398A6
:100FA00000E00298A189090400EBC00101EB0010E8
:100FB000296801D5490000E08900B0FBF1F0642206
:100FC000B0FBF2F109010B096FF018056B4300EB60
:100FD0008300A3891D044FF0320306D503EBC00044
:100FE000B0FBF2F000F0070005E003EB0010B0FBEF
:100FF000F2F000F00F000843208105B030BD000082
:10100000003801408088C0F308007047C1F3080130
:1010100081807047FEE700000FB4054B10B503A9AF
:10102000044A029800F050F910BC5DF814FB00006F
:10103000E9200008C0000020490050EAC12018BF84
:1010400004204A0D18BF40F0010040F2FF72B2EBDD
:10105000515F08BF40F00200012808BF052070471B
:101060002DE9F0414F1E00EBC7010446D1E9000114
:1010700015461E4637F006020DD02A463346FFF7C6
:1010800082F97F1E04EBC703D3E90023FFF7D4F8EE
:1010900037F00602F1D1022F25D0042F13D0062FEE
:1010A00018BFBDE8F0812A463346FFF76CF9D4E952
:1010B0000A23FFF7C1F82A463346FFF764F9D4E95B
:1010C0000823FFF7B9F82A463346FFF75CF9D4E95D
:1010D0000623FFF7B1F82A463346FFF754F9D4E95F
:1010E0000423FFF7A9F82A463346FFF74CF9D4E961
:1010F0000223FFF7A1F82A463346FFF744F9D4E963
:101100000023BDE8F041FFF797B80122FFF77ABB53
:10111000FFF792B8024A00201107FFF773BB0000E7
:1011200001FDFFFF02E008C8121F08C1002AFAD122
:1011300070477047002001E001C1121F002AFBD157
:10114000704700002DE9FF5F82B00021DDE9043027
:10115000020DDDF840B0034318D044F61050A2F25F
:10116000FF3242431514119801281FD0A5EB0B0044
:10117000401C5FEA000A4FF000064E4FDFF838913E
:10118000B046504615D5CAF1000413E01198012469
:101190004AA3012801D16FEA0B010298119AC0E914
:1011A0000031C0E9024206B0BDE8F09FCBF100007B
:1011B000DFE704460021404A491842EB0450CDE9DC
:1011C000001012E0E00707D032463B464046494651
:1011D000FFF7D9F88046894632463B461046194605
:1011E000FFF7D1F806460F466410002CEAD1DDE97E
:1011F0000401DDE90023BAF1000F06DAFFF7C3F8B6
:1012000042464B46FFF7BFF805E0FFF72EF942468E
:101210004B46FFF72AF904460E460022284BFFF7FB
:1012200021FB03D84FF0FF30014607E00022254B99
:1012300020463146FFF700F8FFF7FBFA102409E0DB
:10124000002C0ADB0A220023FFF7F6F9039B303259
:101250001A55641E50EA0102F2D1641C039AC4F1CB
:1012600011031444119A012A03D0012208430DD11D
:101270000AE0084304D000204FF0110B119072E7F0
:10128000A3EB0B056D1E0DE05B4504DD4FF0000286
:1012900005F1010504E003DA4FF00002A5F10105B4
:1012A000002AECD002981199C0E90231C0E900454A
:1012B00079E70000000014400000F03F300000001B
:1012C0000000F0430000E03F2DE9FF4F95B09B4642
:1012D0008946064600250FE2252877D100242746B7
:1012E000F84A0121059400E0044316F8013F203B31
:1012F00001FA03F01042F7D130782A2811D06FF0AC
:101300002F033078A0F13002092A16D8059A44F04C
:10131000020402EB820203EB42021044761C0590A9
:10132000EFE759F8042B0592002A03DA504244F4FF
:101330000054059044F00204761C30782E2816D113
:1013400016F8010F44F004042A280DD06FF02F0284
:101350003078A0F13003092B09D807EB870302EBA3
:101360004303C718761CF3E759F8047B761C3078E2
:101370006C280FD006DC4C2817D068280DD06A28BE
:1013800014D104E0742810D07A280FD10DE044F471
:1013900000140AE044F4801401E044F4401472782C
:1013A000824202D104F58014761C761C30786628BF
:1013B0000BD013DC582877D009DC002875D04528DD
:1013C000F6D04628F4D047281AD19DE118E06328CA
:1013D00035D0642879D0652812D195E1702873D072
:1013E00008DC6728F1D069286FD06E280DD06F28EF
:1013F00006D1B5E073282CD0752875D0782874D024
:101400005A46179990476D1C75E1C4F302500228A3
:1014100009D003280DD0D9F8001004280DD00D6094
:1014200009F1040967E1D9F80010EA17C1E900528F
:10143000F6E7D9F800100D80F2E70D70F0E719F823
:10144000041B8DF8001000208DF80100EA460120F1
:1014500003E059F804AB4FF0FF3061074FF0000193
:1014600002D40DE008F101018846B9420FDA804547
:10147000F8DB1AF808100029F4D108E008F101019E
:1014800088468142FADB1AF808100029F6D105983F
:101490005B46A0EB080721463846179A00F094FAFD
:1014A000284400EB080507E04DE029E10DE01AF8BB
:1014B000010B5A4617999047B8F10108F7D25B46DD
:1014C00021463846179A13E142E00A220092C4F3FB
:1014D00002524FF0000A022A08D059F804CB032A1E
:1014E0004FEAEC710AD00DE029E02AE009F107018A
:1014F00021F00702F2E802C1914609E00FFA8CFCE4
:101500004FEAEC71042A03D14FFA8CFC4FEAEC71DC
:10151000002907DA0A460021DCF1000C61EB020128
:101520002D2202E0220504D52B228DF80420012271
:1015300003E0E20701D02022F7E7904659E00A21B4
:1015400002E010220DE010214FF0000A00910BE0A4
:1015500010224FF0000A44F004040827009203E030
:1015600008224FF0000A0092C4F30252022A05D06A
:1015700059F804CB0021032A08D009E009F107013A
:1015800021F00702F2E802C1914605E01FFA8CFC47
:10159000042A01D10CF0FF0C4FF00008220728D5D7
:1015A000702806D0009B83F0100353EA0A0305D08D
:1015B0000EE040228DF80420012208E05CEA0102DE
:1015C00006D030228DF804208DF8050002229046C6
:1015D000009B83F0080353EA0A030AD15CEA010284
:1015E00001D1620705D530228DF804204FF00108A3
:1015F0007F1E582804D034A003900EA802900DE05E
:1016000036A0F9E753466046009AFFF715F884467E
:101610000398825C0298401E029002705CEA01000E
:10162000F0D1029806A9081A00F1200A600702D535
:1016300024F4803400E00127574502DDA7EB0A00BF
:1016400000E0002000EB0A01009005984144401A98
:101650000590E00306D45B462146179A059800F0F2
:10166000B3F90544002706E001A85A46C05D179962
:1016700090476D1C7F1C4745F6DBE0030CD55B46AD
:101680002146179A059800F09FF9054404E03020A0
:101690005A46179990476D1C0099481E00900029E2
:1016A000F5DC08E0029802995A460078491C02913C
:1016B000179990476D1CBAF10001AAF1010AF1DCFB
:1016C00065E1000009280100303132333435363706
:1016D000383961626364656600000000303132337E
:1016E000343536373839414243444546000000001E
:1016F00000F058F90544761C307800287FF4ECADF2
:1017000019B02846BDE8F08F620700D4062709F11A
:10171000070222F0070CFCE80223E14603F0004830
:101720005FEA080C02D00FF2702C0DE05FEA045C57
:1017300002D50FF2682C07E05FEAC47C02D00FF2FA
:10174000602C01E0AFF2700C4FF0FF3823F0004343
:10175000CDF850C065280CD006DC452809D04628B5
:101760001DD047283DD13DE0662818D067287ED19E
:1017700038E00021112F01DB112000E0781CCDE9B9
:10178000000106A90EA8FFF7DDFCDDE90F010E9AA6
:1017900003910021009207F1010A04914DE04FF0FE
:1017A00000400097CDE9011006A90EA8FFF7CAFC7A
:1017B000DDE90F0203920E9B11990022DDF80CA0C7
:1017C0000093049211B9791C00EB010AB7EB0A00EF
:1017D00004D4C0F1FF3007F1010A0490AAEB07001E
:1017E000019044E0012F00DA01270021112F01DDD3
:1017F000112000E03846CDE9000106A90EA8FFF748
:10180000A1FCDDE90F010E9A0391002104910092E1
:10181000BA4621070CD40399514500DA8A46BAF139
:10182000010F05DD009AAAF10101515C302908D0B1
:10183000B84202DA10F1040F06DA0121CDE90110F5
:1018400015E0AAF10101E9E7002805DC049901444B
:101850000491AAEB000102E0411C514500DD8A46DB
:101860000499401A401C01904FF00040029020075C
:1018700004D40198504501DBCDF8048000208DF898
:101880004F0002980DF14F07B0F1004F25D02B20EB
:101890000E9002984FF0020800280CDA40420290A5
:1018A0002D200E9007E00A210298FEF7AFFE30319E
:1018B000029007F8011DB8F10001A8F10108F2DC5F
:1018C00002980028EFD1791E0E980870307800F049
:1018D000200040F0450007F8020D12A8C01B00F1DF
:1018E00007081498007800B1012000EB0A01019864
:1018F00001EBE07105984144401A401E0590E00359
:1019000006D45B462146179A059800F05DF8054419
:101910001498007818B15A46179990476D1CE00347
:1019200024D55B462146179A059800F04DF80544EA
:101930001CE00498002807DBDDE90301884203DD91
:101940000098405C179901E0179930205A4690475B
:10195000049805F10105401C04900198401E019077
:1019600004D12E205A46179990476D1CBAF10001F8
:10197000AAF1010ADDDC05E017F8010B5A461799B8
:1019800090476D1CB8F10001A8F10108F4DC5B463A
:101990002146179A0598ABE62D0000002B000000A9
:1019A000200000002DE9F041044600251E461746A0
:1019B000880404D405E039462020B0476D1C641E1D
:1019C000F9D52846BDE8F0812DE9F041044600250F
:1019D0001E469046C80301D5302700E02027880422
:1019E00004D505E041463846B0476D1C641EF9D564
:1019F0002846BDE8F08100F021FA00002DE9F84FFB
:101A000004460D4621F0004000917349814211DCEB
:101A10007249884201DC06D12CB120462946BDE836
:101A2000F84FFFF772BB6E48002DCCBF6D496E4971
:101A3000BDE8F88F6D49814211DD6D498142D8BF03
:101A40004FF0FF366DDD20462946FFF7F5FA0428F2
:101A500008BFFFF75FFB20462946BDE8F88F6549C0
:101A6000654F25F00045814233DD6449814219DD2F
:101A7000002632464FF0804320462946FEF7DCFB25
:101A800080468A46012220462946FEF7BBFE0022F8
:101A90003B46FEF772FC42465346FEF7E6FC044620
:101AA0000D463EE001260022BA463B462046294626
:101AB000FEF7C2FB80460F460022534620462946C9
:101AC000FEF75BFC42463B46FEF7CFFC04460D4664
:101AD00027E04B4981421BDDDFF828A102260022C6
:101AE000534620462946FEF74EFC00223B46FEF7B1
:101AF000A3FB80460F460022534620462946FEF7A8
:101B00003CFC42463B46FEF7B0FC04460D4608E06E
:101B1000032622462B4600203B49FEF7A6FC04463E
:101B20000D4622462B4610461946FEF72CFC8B46E6
:101B3000824602460B46FEF726FC0746024633481D
:101B400088460B4606217844FFF78AFA52465B46E0
:101B5000FEF719FC82462E488B463A46434605213D
:101B60007844FFF77DFA3A464346FEF70CFC0246FE
:101B70000B46002E504659460CDAFEF75DFB224616
:101B80002B46FEF700FC01B022462B46BDE8F04F85
:101B9000FEF7F6BBFEF750FB22462B46FEF7F3FBA3
:101BA0001C4A7A4402EBC603D3E90023FEF7E5FBA7
:101BB00022462B46FEF7E1FB174A7A4402EBC603A6
:101BC000D3E90023FEF7DCFB009A002AB8BF81F0BE
:101BD0000041BDE8F88F0000000010440000F07FD5
:101BE000182D4454FB21F93FFB21F9BF0000DC3FD5
:101BF0000000203E0000F33F0000F03F0000E63F01
:101C0000008003400000F83F0000F0BF8E0C000091
:101C10004C0C0000EA0B0000B20B00002DE9F04D67
:101C20009446CCF1000423F000464CEA0404524FE1
:101C300046EAD4749A46884621F00042BC4206D84F
:101C4000454240EA050442EAD474BC4204D9BDE8E6
:101C5000F04D6246FFF75CBAAAF14055A5F17F65E9
:101C600055EA0C040BD0022404EAAA74434DDFF8B1
:101C700010E144EAD87452EA000B04D00CE0BDE84D
:101C8000F04DFFF7BBBE002C14BF012CBDE8F08D5A
:101C9000022C30D0032C32D056EA0C0B0AD0BE42B4
:101CA00020D1BA4209D126F0804622F08042334644
:101CB000114617E000291ADB25E0DFF8C8B0FB4425
:101CC000002C04BFDBE90001BDE8F08D012C02BF50
:101CD000DBE9000181F00041BDE8F08D022C0AD063
:101CE000032C0CD0BA4212D1B8F1000F0BDA234802
:101CF0002549BDE8F08D28462449BDE8F08D2846E9
:101D00007146BDE8F08D1D482149BDE8F08D921B5C
:101D100012153C2AC4BF19481D490EDCBAF1000F48
:101D2000BEBF12F13C0F0020014606DB6246FEF703
:101D30009CFB21F00041FFF761FE002C08BFBDE8CD
:101D4000F08D012C04BF81F00041BDE8F08D114AF7
:101D5000114B022C07D0FEF710FB2A46BDE8F04DD0
:101D60000A4BFEF70ABBFEF708FB2A46BDE8F04D1A
:101D7000064BFEF705BB00000000F07F182D445411
:101D8000FB2109C0460B0000FB21F9BFFB210940E4
:101D9000FB21F93F075C143326A6A13C7FB505461D
:101DA000012144F20400FEF73DFF4FF40070ADF84E
:101DB000000003208DF8020018201E4C8DF803004F
:101DC00069462046FEF79EFD2015ADF80000042070
:101DD0008DF8030069462046FEF794FD25208DF816
:101DE000000005208DF8010000248DF8024001203C
:101DF0008DF803006846FEF7D7FEADF80440ADF855
:101E00000640ADF80840ADF80C400C200A4CADF887
:101E10000A00009569462046FFF79EF8012240F22D
:101E200025512046FFF780F801212046FFF74CF8A6
:101E30007FBD000000080140003801408AB0002743
:101E400000F0F2F9714CDFF8C8A104F140000990EC
:101E5000801E0890801E07900A300690801E059014
:101E6000801EDFF8B0B104900A2000F009F907AB3A
:101E700093E8070000F092F904AB93E8070000F044
:101E80006DF9B4F93C000834FEF75EFB624D29465B
:101E9000FEF7A0F96060B4F93600FEF755FB29465D
:101EA000FEF798F9A060B4F93800FEF74DFB29461B
:101EB000FEF790F9E060B4F93A603046FEF744FB73
:101EC000DFF858814146FEF785F92061B4F93C00FE
:101ED000FEF73AFB4146FEF77DF96061B4F93E50EA
:101EE0002846FEF731FB4146FEF774F9A06128460B
:101EF000FEF733FB054688463046FEF72EFB434689
:101F00002A46FFF78BFEDFF8189100224B46FEF7BA
:101F10003AFA52465B46FEF7A8FAFEF75BFB44F836
:101F2000040C8046A06880F00040FEF740FB0546A8
:101F30000E464046FEF73BFB02460B463A483949FF
:101F4000CDE90210CDE900563848FEF765FD374966
:101F5000D1E90601FEF73EFBE062B4F93E00FEF770
:101F6000FCFA05460E46B4F93C00FEF7F6FA2A469E
:101F70003346FFF753FE00224B46FEF704FA524663
:101F80005B46FEF772FAFEF725FB44F8080C804624
:101F9000606880F00040FEF70AFB05460E464046AA
:101FA000FEF705FB02460B461F481E49CDE902100D
:101FB000CDE900561E48FEF72FFD1D49D1E9060167
:101FC000FEF708FBA062054664207F1C97FBF0F13A
:101FD00000FB1170083C00287FF446AFA06BFEF7B1
:101FE000E6FA064689462846FEF7E1FA054688469F
:101FF000606BFEF7DCFACDE90058CDE902690246D4
:102000000B460CA0FFF708F82EE70000D0000020D8
:102010004AD8124DFB21094058A08B3ACDCC1C3A2E
:10202000008066407B14AE47E17A843F7800002050
:102030003000002025662C2025662C2025660D0A00
:102040000000000010B56FF00400FEF795FE09488F
:1020500009490068B0FBF1F0C1B2084801EB410248
:102060000170C2EBC1114FF6FF7202EAC10141805B
:1020700010BD00000000002000127A0014000020B3
:102080000B49498848434FF0E021486100228A61AA
:10209000086940F0010008610869C30701D0C00366
:1020A000FAD5086920F0010008618A6170470000D4
:1020B000140000200B49097848434FF0E0214861A3
:1020C00000228A61086940F0010008610869C307BD
:1020D00001D0C003FAD5086920F0010008618A61C7
:1020E000704700001400002070B5074D0446C1B2CF
:1020F0002846FEF78BFF80212846FEF7EFFE0028DA
:10210000F9D0204670BD0000003801404FF4407007
:10211000FEF77CFD01210846FEF784FD01210B48F6
:10212000FEF742FC4FF4E130FFF738FEFFF78AFF7D
:10213000002000F07BF9FFF75EFC4FF47A7404A0F6
:10214000FEF76AFF2046FFF79BFFF8E7000230002A
:1021500048454C4C4F20310D0A0000007CB5144618
:102160000D46060017D0B5B1ACB16B4606223B2137
:10217000682000F0A3F810F0FF000BD1BDF80010AC
:1021800049BA3180BDF8021049BA2980BDF804105F
:1021900049BA21807CBD02207CBD00002DE9FC41B4
:1021A00014460D4606000CD05DB154B16B460622B4
:1021B0004321682000F082F8C0B25FEA000803D033
:1021C0002DE00220BDE8FC81BDF8000040BA30805F
:1021D000BDF8020040BA2880BDF8040040BA208053
:1021E000B6F90000FEF7B0F90E4F3968FDF7ECFFC5
:1021F000FEF7C4F93080B5F90000FEF7A5F979685B
:10220000FDF7E2FFFEF7BAF92880B4F90000FEF707
:102210009BF9B968FDF7D8FFFEF7B0F9208040467A
:10222000D0E70000C400002008B500208DF80000B1
:1022300080226B21682000F09CF86420FFF720FFCB
:1022400000226B21682000F094F8032000F052F87F
:10225000002000F046F8642000F073F801223821D5
:10226000682000F086F800226A21682000F081F8DA
:1022700000222321682000F07CF89C22372168206E
:1022800000F077F86A467521682000F021F89DF883
:102290000000682801D0012008BD01226B216820C0
:1022A00000F067F800226C21682000F062F86420DA
:1022B00000F047F800F066F8002008BD08B500936C
:1022C00013460A460146002000F016F9002008BD1A
:1022D00013460A4610B50146002000F04EF90020D2
:1022E00010BDC00610B5020E1C21682000F041F898
:1022F000C0B210BD032101EBC00010B5C2B21B215A
:10230000682000F036F8C0B210BD10B5BC2801D36B
:10231000012210E0622801D302220CE02A2801D316
:10232000032208E0142801D3042204E00A2801D380
:10233000052200E006221A21682000F01AF8C0B237
:1023400010BD10B504464FF47A70844201D904469A
:1023500002E0042C00D20424B0FBF4F0401EC2B210
:102360001921682000F005F86008BDE81040FFF76B
:10237000CCBF13460A4610B50146002000F0CBF949
:10238000002010BDFEB500273E463D463C4602AA51
:1023900001A96846FFF702FFBDF900000744BDF937
:1023A00004000644BDF9080005440A20FFF768FE52
:1023B000641C642CEBDB642497FBF4F0FEF7C4F898
:1023C000064F386096FBF4F0FEF7BEF8786095FB98
:1023D000F4F0FEF7B9F8B860FEBD0000C4000020BC
:1023E00010B50446002100F031F90420FFF762FE29
:1023F0000121204600F01CF90420FFF75BFE0021BC
:10240000204600F015F90121204600F01FF9BDE833
:1024100010400420FFF74EBE002803D1802102485F
:10242000FEF7EEBA70470000000C014038B50028F6
:1024300019D101210820FEF7F5FBC020ADF80000FE
:1024400003208DF802001420074C8DF80300694624
:102450002046FEF757FA40212046FEF7DAFA80219F
:102460002046FEF7D6FA38BD000C014010B50446F0
:10247000012100F0EBF80420FFF71CFE01212046AB
:1024800000F0D6F80420FFF715FE2046BDE8104006
:10249000002100F0CDB82DE9F04100240E4607469A
:1024A00025460021384600F0C3F80420FFF702FE5D
:1024B0000121384600F0BCF86006040E3846FFF7EC
:1024C000ABFF08B1641CE4B20420FFF7F3FD6D1C00
:1024D000EDB2082DE5D30021384600F0A9F804201C
:1024E000FFF7E8FD384626B1FFF77AFF2046BDE842
:1024F000F081FFF7BBFFF9E72DE9F0411C461746D5
:102500000E468046069D00F0AFF87006010E40466C
:1025100000F06AF8404600F0D9F8A8B939464046BC
:1025200000F062F8404600F0D1F868B9404600F08B
:102530009BF8012000EB4600C1B2404600F054F881
:10254000404600F0C3F878B1404600F0A6F80120FC
:10255000BDE8F081012C0ED001214046FFF79BFF22
:10256000641E05F8010BE4B2002CF3D1404600F0E4
:1025700094F80020ECE70021EFE72DE9F0411D463B
:1025800016460C46074600F06FF86006010E384606
:1025900000F02AF8384600F099F8A8B931463846D4
:1025A00000F022F8384600F091F868B9384600F09B
:1025B0005BF8012000EB4400C1B2384600F014F88B
:1025C000384600F083F828B1384600F066F801205C
:1025D000BDE8F08100213846FFF75DFF28703846DE
:1025E00000F05BF80020F3E770B50C4606460021CA
:1025F00000F01EF80025200601D5012100E0002191
:10260000304600F023F86006040E0121304600F049
:102610000FF80420FFF74EFD0021304600F008F8C7
:102620000420FFF747FD6D1CEDB2082DE3D370BD0C
:10263000002808D1044800294FF0400101D0FEF7DE
:10264000E8B9FEF7E4B97047000C0140002808D152
:10265000044800294FF0800101D0FEF7DAB9FEF7F7
:10266000D6B97047000C014010B504460121FFF7B0
:10267000EDFF01212046FFF7DBFF0420FFF71AFDE5
:1026800000212046FFF7E2FF0420FFF713FD20465C
:10269000BDE810400021FFF7CBBF10B50446002174
:1026A000FFF7C6FF00212046FFF7D0FF0420FFF709
:1026B00001FD01212046FFF7BBFF01212046FFF766
:1026C000C5FFBDE810400420FFF7F4BC70B5054617
:1026D00000240121FFF7BAFF0420FFF7EBFC0121E2
:1026E0002846FFF7A5FF0420FFF7E4FC08E0641C80
:1026F000E4B2FA2C04D92846FFF7CFFF012070BDC1
:102700002846FFF789FE0028F1D100212846FFF76F
:102710008FFF002070BD2DE9F0411D4616460C4686
:102720000746FFF7A1FF6006010E3846FFF75CFF82
:102730003846FFF7CBFF78B931463846FFF754FFEC
:102740003846FFF7C3FF38B929463846FFF74CFF34
:102750003846FFF7BBFF28B13846FFF79EFF012040
:10276000BDE8F0813846FFF798FF0020F8E7000049
:102770004FBB610567ACDD3F182D4454FB21E93F99
:102780009BF681D20B73EF3F182D4454FB21F93F88
:10279000E2652F227F2B7A3C075C143326A6813C0E
:1027A000BDCBF07A8807703C075C143326A6913CB9
:1027B000C4EB98999999C9BF711623FEC671BCBF25
:1027C0006D9A74AFF2B0B3BF9AFDDE522DDEADBF8D
:1027D0002F6C6A2C44B4A2BF0D5555555555D53FA5
:1027E000FF8300922449C23F6E204CC5CD45B73FC0
:1027F000513DD0A0660DB13FEB0D76244B7BA93F38
:1028000011DA22E33AAD903F000000000000000022
:102810003028000800000020C40000002411000837
:10282000F4280008C40000205404000034110008FB
:1028300000A24A040000000000000000010203049E
:102840000607080900000000000000000204060856
:102850000000000001020304010203040607080946
:10286000000000E04D62503F000000C07493683FDC
:10287000000000E051B89E3F000000000000000092
:102880000000000000000000000000000000000048
:102890000000000000000000000000000000000038
:1028A0000000000000000000000000E04D62503F0A
:1028B000000000C07493683F000000E051B89E3FE4
:1028C0000000000000000000000000000000000008
:1028D00000000000000000000000000000000000F8
:1028E00000000000000000000000000000000000E8
:0428F00000000000E4
:04000005080000ED02
:00000001FF
