:020000040800F2
:100000003804002001010008D7090008CF090008C2
:10001000D3090008E3070008AF0F00080000000044
:10002000000000000000000000000000550B000868
:10003000E7070008000000005D0A0008690C0008DE
:100040001B0100081B0100081B0100081B01000820
:100050001B0100081B0100081B0100081B01000810
:100060001B0100081B0100081B0100081B01000800
:100070001B0100081B0100081B0100081B010008F0
:100080001B0100081B0100081B0100081B010008E0
:100090001B0100081B0100081B0100081B010008D0
:1000A0001B0100081B0100081B0100081B010008C0
:1000B000CD0C00081B0100081B0100081B010008F3
:1000C0001B0100081B0100081B0100081B010008A0
:1000D0001B010008D50D00081B0100081B010008CA
:1000E0001B0100081B0100081B010008DFF80CD0F1
:1000F00000F034FB00480047491B0008380400208A
:100100000648804706480047FEE7FEE7FEE7FEE7B1
:10011000FEE7FEE7FEE7FEE7FEE7FEE76D0C000800
:10012000ED00000880EA010210B502F00043400033
:1001300022D04A001FD0010E01EB1261C0F356001D
:10014000C2F3560240F4000042F40002A0FB022079
:1001500000047F39140400D0401C50EA124001D43E
:100160004000491EC2B20C0604EBD010401C4008EF
:10017000802A02D003E0002010BD20F001000029F9
:1001800000DA0020184310BD30B480EA010202F00A
:10019000004530F0004221F0004013D090B1C30D73
:1001A000D40DC2F31601C0F31600E41A41F40001A5
:1001B00040F400027D34914201D3641C00E0490008
:1001C000002C02DA30BC002070474FF400000023FE
:1001D000914201D3891A034340084FEA4101F7D104
:1001E00051B1914202D14FF0004105E002D24FF0EF
:1001F000010101E06FF0010103EBC450284430BC61
:1002000000F0CEB82DE9F04D81EA030404F0004B74
:1002100021F0004514464FF0000A23F0004150EA57
:10022000050220D054EA01021DD0C5F30A57024648
:10023000C5F31303C1F31300C1F30A5640F480154C
:1002400043F48013A7EB0608101BD64608F2FD38CE
:1002500073EB050002D308F1010801E092185B413D
:10026000B8F1000F03DA00200146BDE8F08D002050
:100270004FF48011064684460EE0171B73EB05070A
:1002800005D3121B63EB050306434CEA010C490836
:100290004FEA300092185B4150EA0107EDD152EA73
:1002A000030012D082EA040083EA0501084305D066
:1002B000101BAB4106D20122002306E000224FF0C2
:1002C000004302E06FF0010253101AEB06004CEB02
:1002D000085110EB0A0041EB0B01BDE8F04D00F0B6
:1002E00096B896230022114600F063B800F0004251
:1002F00030F000400AD0C10D01F56071C0F3160066
:1003000042EA0151C20840071143704700200146EC
:10031000704730B50B46014600202022012409E039
:1003200021FA02F59D4205D303FA02F5491B04FAAE
:1003300002F52844151EA2F10102F1DC30BD2DE9C1
:10034000F05F0546002092469B4688460646814659
:1003500040241BE0284641464746224600F01FFA4B
:1003600053465A46C01A914110D3114618462246A8
:1003700000F006FA2D1A67EB01084F4622460120CD
:10038000002100F0FDF917EB00094E41201EA4F1F9
:100390000104DFDC484631462A464346BDE8F09F6B
:1003A0000029A8BF7047401C490008BF20F0010089
:1003B000704710B4B0FA80FC00FA0CF050EA010467
:1003C00004BF10BC704749B1CCF1200421FA04F4F9
:1003D00011FA0CF118BF012121430843A3EB0C01D2
:1003E000CB1D4FEA00614FEA102042BF002010BC35
:1003F000704700EBC35010440029A4BF10BC7047E5
:10040000401C490008BF20F0010010BC704710B527
:10041000141E73F1000408DA401C41F10001921827
:100420005B411A4301D120F0010010BD2DE9F04DD0
:1004300092469B4611B1B1FA81F202E0B0FA80F225
:100440002032904600F09CF904460F4640EA0A002C
:1004500041EA0B0153465A46084313D0114653EA6A
:10046000010019D0C8F14002504600F098F9054645
:100470000E4650465946424600F082F9084305D0E0
:10048000012004E020463946BDE8F08D00200543F8
:1004900046EAE0762C4337430A986305E40AA0EB6A
:1004A00008000022FD0A44EA47540A3002D5002021
:1004B0000146E9E7010510196941DDE90845001920
:1004C0006941BDE8F04DA2E72DE9FE4F804681EA83
:1004D0000300C00F0C46009021F0004123F00045BE
:1004E000B8EB0200A94105D24046214690461C4681
:1004F0000B46024623F00040104347D0270DC7F3B8
:100500000A00C3F30A510290401A019040286BDAA6
:10051000C3F3130040F4801B0098924620B10023DF
:10052000D2EB030A63EB0B0B01985946C0F1400272
:10053000504600F025F906460D4650465946019AA8
:1005400000F03DF910EB08006141002487EA1152E8
:1005500084EAE7731A4340D0009A62B3019A012AF1
:100560004FEA075215DC001B61EB02014FF000421D
:1005700002EA0752CDE90042001C41F580113246E3
:100580002B46FFF753FF03B0BDE8F08F40462146EE
:10059000F9E7001B61EB0201001C41F58013001814
:1005A0005B412018A2F5001747EB030140EAD57024
:1005B000B6196D4111E06D084FEA360645EAC0757F
:1005C0004FEA0752001B61EB0201001C41F580114C
:1005D00049084FEA30000019514132462B4603B01A
:1005E000BDE8F04FFFF713BF009801224000002341
:1005F000D0EB020263EBE073009821464FEAE0740F
:10060000B8EB000061EB0401E9E783F000435BE72E
:1006100081F0004158E72DE9FE4F81EA030404F020
:10062000004421F0004100944FF0000B23F0004300
:1006300050EA01045ED052EA03045BD0C3F30A54CB
:10064000C1F30A552C44A4F2F3340194A0FB0254E4
:10065000C1F3130141F48011C3F3130343F4801376
:1006600001FB024400FB034E840A970A44EA8154CA
:1006700047EA8357A4FB076802958D0A05FB0785A7
:100680004FEA932C04FB0C542705029D4FEA0658B1
:1006900047EA1637B5EB08056EEB070C870E920E8E
:1006A00047EA811742EA8312A7FB0201B6EB0B016E
:1006B00064EB00042B0D43EA0C335E1844EB1C5032
:1006C000DA465146E7FB0201C5F313044FEA0B3348
:1006D00043EA14534FEA0432019C43EA0603A4F1AF
:1006E0000C040294009CCDE900B4FFF79FFE03B018
:1006F000BDE8F08F00200146F9E7C1F30A52C1F3CB
:10070000130140F2FF3341F480119A4202DA0020D3
:100710000146704740F233439A42A2F2334202DC70
:10072000524200F03CB800F02BB8000030B5041E77
:1007300071F1000404DB4FF00044404264EB01011E
:10074000141E73F1000405DB1C464FF000435242B7
:1007500063EB0403994208BF904230BD064C074D3D
:1007600006E0E06840F0010394E807009847103481
:10077000AC42F6D3FFF7BEFCF41E0008141F0008BD
:10078000202A04DB203A00FA02F100207047914051
:10079000C2F1200320FA03F3194390407047202A46
:1007A00004DB203A21FA02F00021704721FA02F31B
:1007B000D040C2F120029140084319467047202AD8
:1007C00006DBCB17203A41FA02F043EAE07306E079
:1007D00041FA02F3D040C2F1200291400843194689
:1007E000704700BFFEE7704710B5044800F0D6FB25
:1007F000C4B22146014800F0D6FB10BD00380140CC
:100800000149086070470000140401402DE9F041DF
:10081000024600250026002000230024002791F82E
:1008200003C00CF00F0591F803C00CF0100CBCF1E4
:10083000000F03D091F802C04CEA050591F800C002
:10084000BCF1000F31D0146800202BE04FF0010CF8
:100850000CFA00F3B1F800C00CEA03069E4220D166
:1008600083004FF00F0C0CFA03F7BC4305FA03FCAE
:100870004CEA040491F803C0BCF1280F06D14FF0F4
:10088000010C0CFA00FCC2F814C00AE091F803C095
:10089000BCF1480F05D14FF0010C0CFA00FCC2F876
:1008A00010C0401C0828D1D31460B1F800C0BCF1BE
:1008B000FF0F34DD546800202EE000F1080C4FF0EB
:1008C000010808FA0CF3B1F800C00CEA03069E42D6
:1008D00021D183004FF00F0C0CFA03F7BC4305FA4B
:1008E00003FC4CEA040491F803C0BCF1280F05D1C5
:1008F00000F1080C08FA0CF8C2F8148091F803C053
:10090000BCF1480F07D100F1080C4FF0010808FABC
:100910000CF8C2F81080401C0828CED35460BDE803
:10092000F0810000F0B50A460023002400210025D4
:1009300000F00046B6F1004F02D11D4EF16901E012
:100940001B4E7168C0F3034583B200F44016B6F540
:10095000401F08D121F07061154E766826F0706650
:10096000134F7E6012E000F48016B6F5801F06D1AA
:10097000032606FA05F4A14341F0706106E0460D36
:10098000360103FA06F6B14341F0706122B1460D1B
:10099000360103FA06F6314300F00046B6F1004F87
:1009A00002D1034EF16101E0014E7160F0BD000023
:1009B000000001400246002093680B400BB101206B
:1009C00000E000207047416170470161704700BF3F
:1009D000FEE700BFFEE7704770B5002100230F223D
:1009E000C47804B3154C246804F4E064C4F5E064EE
:1009F000210AC1F10403CA40447804FA03F184785F
:100A00001440214309010E4C0678A155047804F0E6
:100A10001F050124AC4005786D11AD0005F1E025FE
:100A2000C5F8004109E0047804F01F050124AC403A
:100A3000044D0678761145F8264070BD0CED00E0B7
:100A400000E400E080E100E002490143024A116055
:100A5000704700000000FA050CED00E07047000050
:100A600029B1064A92690243044B9A6104E0034AA1
:100A700092698243014B9A61704700000010024066
:100A800030B500210022002400232D4D6D6805F0B3
:100A90000C0121B1042905D0082923D105E0294DF5
:100AA000056022E0274D05601FE0254D6D6805F4C7
:100AB0007012234D6D6805F48034022505EB9242D7
:100AC0001CB9214D554305600BE01D4D6D6805F4C3
:100AD00000351DB11C4D5543056002E0194D5543CD
:100AE000056002E0174D056000BF00BF144D6D6842
:100AF00005F0F0010909154D6B5C0568DD404560A6
:100B00000F4D6D6805F4E061090A104D6B5C456896
:100B1000DD4085600A4D6D6805F46051C90A0B4DD2
:100B20006B5C4568DD40C560054D6D6805F440416E
:100B3000890B074D6B5CC568B5FBF3F5056130BDEE
:100B40000010024000127A0000093D002000002041
:100B500030000020704710B500F002F810BD000012
:100B60000CB50020019000903348006840F48030BC
:100B70003149086000BF3048006800F40030009040
:100B80000198401C0190009818B90198B0F5A06F29
:100B9000F1D12948006800F4003010B10120009024
:100BA00001E0002000900098012843D1234800680C
:100BB00040F01000214908600846006820F003005A
:100BC00008600846006840F0020008601A48406863
:100BD000194948600846406848600846406840F443
:100BE000806048600846406820F47C1048600846F1
:100BF000406840F4E81048600846006840F08070A3
:100C0000086000BF0C48006800F000700028F9D0B0
:100C10000948406820F003000749486008464068DA
:100C200040F00200486000BF0348406800F00C003C
:100C30000828F9D10CBD000000100240002002403D
:100C4000042808D14FF0E021096941F004014FF078
:100C5000E022116107E04FF0E021096921F0040171
:100C60004FF0E022116170477047000010B5134843
:100C7000006840F0010011490860084640681049CA
:100C800008400E494860084600680E4908400B4974
:100C900008600846006820F4802008600846406824
:100CA00020F4FE0048604FF41F008860FFF753FFF8
:100CB0004FF000600449086010BD000000100240C1
:100CC0000000FFF8FFFFF6FE08ED00E010B52E482B
:100CD000007800F0800000284FD10121880700F043
:100CE0005DF8D0B12848007800F04000A8B126484F
:100CF000007800F03F003F280AD12348007840F0F8
:100D00008000214908704FF6FF702049088004E0F8
:100D10001D480078401C1C4908700221480700F05B
:100D20003DF850B31848007800F0400088B11648EC
:100D3000007840F08000144908704FF0804000F0C7
:100D40002AF81249088000214FF0804000F037F85F
:100D500013E000200C4908700C49088000214FF076
:100D6000804000F035F80848007840F0400006491F
:100D700008700221480700F022F803214FF080405C
:100D800000F006F810BD00001C0000201E0000202E
:100D9000CA43028270470146888E704730B50246CA
:100DA000002000230024158A05EA0103958905EA3D
:100DB000010413B10CB1012000E0002030BD0A464F
:100DC0000021018C4FF6FD731940114301847047D7
:100DD0008184704710B540F22551054800F023F892
:100DE00028B1FFF701FD40F22550FFF709FD10BDC6
:100DF0000038014021B1828942F40052828104E02E
:100E000082894DF6FF731A408281704702460020A6
:100E1000B1F5007F00D100BF13880B400BB101205A
:100E200000E00020704770B5024600240023002532
:100E3000002040F66A16B14200D100BFC1F342154E
:100E400001F01F03012606FA03F3012D02D1968952
:100E5000334006E0022D02D1168A334001E0968A23
:100E600033400C12012606FA04F41688344013B1FC
:100E70000CB1012000E0002070BDF0B50346002455
:100E800000260025002040F66A17B94200D100BFB5
:100E90001846C1F3421401F01F06012707FA06F5B0
:100EA000012C01D10C3004E0022C01D1103000E003
:100EB00014301AB107682F43076002E00768AF4398
:100EC0000760F0BD2DE9F04786B005460E460024C8
:100ED000A24600BFA1460027B08900B100BF2F463F
:100EE0002C8A4CF6FF700440F08804432C82AC89B5
:100EF0004EF6F3100440B0883189084371890843E5
:100F00000443AC81AC8A4FF6FF400440B0890443EF
:100F1000AC8201A8FFF7B4FD1F48874202D1DDF87B
:100F200010A001E0DDF80CA0A88900F4004040B159
:100F30000AEBCA0000EB0A1031684900B0FBF1F877
:100F400007E00AEBCA0000EB0A1031688900B0FB29
:100F5000F1F86420B8FBF0F004012009642101FBE2
:100F60001089A88900F4004040B1322000EBC9008C
:100F7000B0FBF1F000F00700044308E0322000EB82
:100F800009106421B0FBF1F000F00F0004432C8144
:100F900006B0BDE8F08700000038014001468888AF
:100FA000C0F308007047C1F308028280704700BF99
:100FB000FEE700000FB4054B10B503A9044A0298E0
:100FC00000F0DAF810BC5DF814FB0000251B0008E7
:100FD0003400002002E008C8121F08C1002AFAD11C
:100FE00070477047002001E001C1121F002AFBD1A9
:100FF000704700002DE9FF5F82B00021DDE9043079
:10100000020DDDF840B0034318D044F61050A2F2B0
:10101000FF3242431514119801281FD0A5EB0B0095
:10102000401C5FEA000A4FF000064E4FDFF838918F
:10103000B046504615D5CAF1000413E011980124BA
:101040004AA3012801D16FEA0B010298119AC0E965
:101050000031C0E9024206B0BDE8F09FCBF10000CC
:10106000DFE704460021404A491842EB0450CDE92D
:10107000001012E0E00707D032463B4640464946A2
:10108000FFF7C9FA8046894632463B461046194664
:10109000FFF7C1FA06460F466410002CEAD1DDE9DD
:1010A0000401DDE90023BAF1000F06DAFFF7B3FA15
:1010B00042464B46FFF7AFFA05E0FFF7A3F842467A
:1010C0004B46FFF79FF804460E460022284BFFF7D9
:1010D0002DFB03D84FF0FF30014607E00022254BDF
:1010E00020463146FFF7F0F9FFF707FB102409E02F
:1010F000002C0ADB0A220023FFF721F9039B303280
:101100001A55641E50EA0102F2D1641C039AC4F11C
:1011100011031444119A012A03D0012208430DD16E
:101120000AE0084304D000204FF0110B119072E741
:10113000A3EB0B056D1E0DE05B4504DD4FF00002D7
:1011400005F1010504E003DA4FF00002A5F1010505
:10115000002AECD002981199C0E90231C0E900459B
:1011600079E70000000014400000F03F300000006C
:101170000000F0430000E03F2DE9FF4F95B09B4693
:101180008946064600250FE2252877D10024274608
:10119000F84A0121059400E0044316F8013F203B82
:1011A00001FA03F01042F7D130782A2811D06FF0FD
:1011B0002F033078A0F13002092A16D8059A44F09E
:1011C000020402EB820203EB42021044761C0590FB
:1011D000EFE759F8042B0592002A03DA504244F451
:1011E0000054059044F00204761C30782E2816D165
:1011F00016F8010F44F004042A280DD06FF02F02D6
:101200003078A0F13003092B09D807EB870302EBF4
:101210004303C718761CF3E759F8047B761C307833
:101220006C280FD006DC4C2817D068280DD06A280F
:1012300014D104E0742810D07A280FD10DE044F4C2
:1012400000140AE044F4801401E044F4401472787D
:10125000824202D104F58014761C761C3078662810
:101260000BD013DC582877D009DC002875D045282E
:10127000F6D04628F4D047281AD19DE118E063281B
:1012800035D0642879D0652812D195E1702873D0C3
:1012900008DC6728F1D069286FD06E280DD06F2840
:1012A00006D1B5E073282CD0752875D0782874D075
:1012B0005A46179990476D1C75E1C4F302500228F5
:1012C00009D003280DD0D9F8001004280DD00D60E6
:1012D00009F1040967E1D9F80010EA17C1E90052E1
:1012E000F6E7D9F800100D80F2E70D70F0E719F875
:1012F000041B8DF8001000208DF80100EA46012043
:1013000003E059F804AB4FF0FF3061074FF00001E4
:1013100002D40DE008F101018846B9420FDA804598
:10132000F8DB1AF808100029F4D108E008F10101EF
:1013300088468142FADB1AF808100029F6D1059890
:101340005B46A0EB080721463846179A00F094FA4E
:10135000284400EB080507E04DE029E10DE01AF80C
:10136000010B5A4617999047B8F10108F7D25B462E
:1013700021463846179A13E142E00A220092C4F34C
:1013800002524FF0000A022A08D059F804CB032A6F
:101390004FEAEC710AD00DE029E02AE009F10701DB
:1013A00021F00702F2E802C1914609E00FFA8CFC35
:1013B0004FEAEC71042A03D14FFA8CFC4FEAEC712E
:1013C000002907DA0A460021DCF1000C61EB02017A
:1013D0002D2202E0220504D52B228DF804200122C3
:1013E00003E0E20701D02022F7E7904659E00A2106
:1013F00002E010220DE010214FF0000A00910BE0F6
:1014000010224FF0000A44F004040827009203E081
:1014100008224FF0000A0092C4F30252022A05D0BB
:1014200059F804CB0021032A08D009E009F107018B
:1014300021F00702F2E802C1914605E01FFA8CFC98
:10144000042A01D10CF0FF0C4FF00008220728D528
:10145000702806D0009B83F0100353EA0A0305D0DE
:101460000EE040228DF80420012208E05CEA01022F
:1014700006D030228DF804208DF805000222904617
:10148000009B83F0080353EA0A030AD15CEA0102D5
:1014900001D1620705D530228DF804204FF00108F4
:1014A0007F1E582804D034A003900EA802900DE0AF
:1014B00036A0F9E753466046009AFEF740FF84469F
:1014C0000398825C0298401E029002705CEA010060
:1014D000F0D1029806A9081A00F1200A600702D587
:1014E00024F4803400E00127574502DDA7EB0A0011
:1014F00000E0002000EB0A01009005984144401AEA
:101500000590E00306D45B462146179A059800F043
:10151000B3F90544002706E001A85A46C05D1799B3
:1015200090476D1C7F1C4745F6DBE0030CD55B46FE
:101530002146179A059800F09FF9054404E03020F1
:101540005A46179990476D1C0099481E0090002933
:10155000F5DC08E0029802995A460078491C02918D
:10156000179990476D1CBAF10001AAF1010AF1DC4C
:1015700065E1000009280100303132333435363757
:1015800038396162636465660000000030313233CF
:10159000343536373839414243444546000000006F
:1015A00000F058F90544761C307800287FF4ECAD43
:1015B00019B02846BDE8F08F620700D4062709F16C
:1015C000070222F0070CFCE80223E14603F0004882
:1015D0005FEA080C02D00FF2702C0DE05FEA045CA9
:1015E00002D50FF2682C07E05FEAC47C02D00FF24C
:1015F000602C01E0AFF2700C4FF0FF3823F0004395
:10160000CDF850C065280CD006DC452809D0462806
:101610001DD047283DD13DE0662818D067287ED1EF
:1016200038E00021112F01DB112000E0781CCDE90A
:10163000000106A90EA8FFF7DDFCDDE90F010E9AF7
:1016400003910021009207F1010A04914DE04FF04F
:1016500000400097CDE9011006A90EA8FFF7CAFCCB
:10166000DDE90F0203920E9B11990022DDF80CA018
:101670000093049211B9791C00EB010AB7EB0A0040
:1016800004D4C0F1FF3007F1010A0490AAEB07006F
:10169000019044E0012F00DA01270021112F01DD24
:1016A000112000E03846CDE9000106A90EA8FFF799
:1016B000A1FCDDE90F010E9A039100210491009233
:1016C000BA4621070CD40399514500DA8A46BAF18B
:1016D000010F05DD009AAAF10101515C302908D003
:1016E000B84202DA10F1040F06DA0121CDE9011047
:1016F00015E0AAF10101E9E7002805DC049901449D
:101700000491AAEB000102E0411C514500DD8A462C
:101710000499401A401C01904FF0004002902007AD
:1017200004D40198504501DBCDF8048000208DF8E9
:101730004F0002980DF14F07B0F1004F25D02B203C
:101740000E9002984FF0020800280CDA40420290F6
:101750002D200E9007E00A210298FEF7DAFD3031C5
:10176000029007F8011DB8F10001A8F10108F2DCB0
:1017700002980028EFD1791E0E980870307800F09A
:10178000200040F0450007F8020D12A8C01B00F130
:1017900007081498007800B1012000EB0A010198B5
:1017A00001EBE07105984144401A401E0590E003AA
:1017B00006D45B462146179A059800F05DF805446B
:1017C0001498007818B15A46179990476D1CE00399
:1017D00024D55B462146179A059800F04DF805443C
:1017E0001CE00498002807DBDDE90301884203DDE3
:1017F0000098405C179901E0179930205A469047AD
:10180000049805F10105401C04900198401E0190C8
:1018100004D12E205A46179990476D1CBAF1000149
:10182000AAF1010ADDDC05E017F8010B5A46179909
:1018300090476D1CB8F10001A8F10108F4DC5B468B
:101840002146179A0598ABE62D0000002B000000FA
:10185000200000002DE9F041044600251E461746F1
:10186000880404D405E039462020B0476D1C641E6E
:10187000F9D52846BDE8F0812DE9F0410446002560
:101880001E469046C80301D5302700E02027880473
:1018900004D505E041463846B0476D1C641EF9D5B5
:1018A0002846BDE8F08110B504461021204600F01E
:1018B00001F810BD70B506460C460121304600F017
:1018C00069F805460DB1284670BD0721304600F085
:1018D00061F805460DB12846F6E72146304600F08E
:1018E00059F805460DB12846EEE7102C01D0112C11
:1018F00003D1B42000F0CAF804E0132C02D1182060
:1019000000F0C4F80020DFE770B504460D4645221C
:101910002946204600F002F870BD00002DE9F84F7E
:1019200007460C4615466946384600F029F88046B9
:10193000B8F1000F03D04FF0FF30BDE8F88F9DF8ED
:1019400001009DF8001040EA01262846FEF7C9FC78
:10195000834659460848FEF717FC81463046FEF795
:10196000C0FC83460549FEF70FFC82464946FEF758
:10197000D9FB20600020E0E700008A429A99993F55
:1019800070B504460D4602232A462146002000F089
:1019900078F970BD13B50446012301AA2146002041
:1019A00000F078FA1CBD00001FB50446012144F286
:1019B0000400FFF755F84FF40070ADF80C00032059
:1019C0008DF80E0018208DF80F0003A91C48FEF7B3
:1019D0001DFF4FF48060ADF80C0004208DF80F005F
:1019E00003A91748FEF712FF25208DF80C000520EB
:1019F0008DF80D0000208DF80E0001208DF80F00ED
:101A000003A8FEF7E9FF00940020ADF80400ADF84C
:101A10000600ADF80800ADF80C000C20ADF80A0087
:101A200069460848FFF74EFA012240F22551054861
:101A3000FFF723FA01210348FFF7DCF91FBD00007F
:101A4000000801400038014010B56FF00400FFF7B6
:101A5000F7F80A4800680A49B0FBF1F00949087034
:101A60000846007800EB4001C1EBC0104FF6FF7153
:101A700001EAC0000449088010BD000004000020F5
:101A800000127A00180000201A0000200146114AB6
:101A900012884A434FF0E0235A6100229A611A46A5
:101AA000126942F001021A6100BF4FF0E022106992
:101AB00000F001021AB100F48032002AF5D04FF094
:101AC000E022126922F001024FF0E0231A610022A5
:101AD0009A6170471A0000200146114A12784A4361
:101AE0004FF0E0235A6100229A611A46126942F0CF
:101AF00001021A6100BF4FF0E022106900F00102FC
:101B00001AB100F48032002AF5D04FF0E0221269B9
:101B100022F001024FF0E0231A6100229A6170471F
:101B20001800002070B504460D46E1B20548FFF7E5
:101B30003AFA00BF80210348FFF768F90028F9D07E
:101B4000204670BD003801404FF44070FEF77CFF26
:101B500001210846FEF784FF01211248FEF7E2FE4C
:101B60004FF4E130FFF720FFFFF76EFF002000F099
:101B700053F82320FFF797FE12E04FF47A70FFF737
:101B800085FF09492320FFF7BFFE48B906480068D2
:101B9000FEF7ACFB044622460B4604A0FFF70AFA08
:101BA000EBE7000000023000000000204C6967688D
:101BB00074203D20252E3266206C75780D0A0000B9
:101BC00010B504460021204600F0FEF800F011F8A0
:101BD0000121204600F0E4F800F00BF80021204637
:101BE00000F0DEF80121204600F0EEF800F001F8E8
:101BF00010BD10B50420FFF76FFF10BD70B504468F
:101C00002CB980210348FEF7D5FE054600E000BF51
:101C1000284670BD000C014038B50446CCB90121FE
:101C20000820FEF71DFFC020ADF8000003208DF84E
:101C3000020014208DF8030069460748FEF7E6FD10
:101C400040210548FEF7C1FE80210348FEF7BDFE96
:101C500000E000BF38BD0000000C014010B5044694
:101C60000121204600F0B0F8FFF7C3FF0121204614
:101C700000F096F8FFF7BDFF0021204600F090F835
:101C800010BD2DE9F04180460F4616461D4615B998
:101C90000120BDE8F081404600F0AAF8012000EBE9
:101CA0004700C1B2404600F053F8404600F0CEF87D
:101CB00000B118E000240FE0681EA04205D1002109
:101CC000404600F015F8305504E00121404600F090
:101CD0000FF83055601CC4B2AC42EDDB404600F05A
:101CE0009EF80020D5E7404600F099F80120D0E7A3
:101CF0002DE9F04107460D460024002615E000219D
:101D0000384600F04DF8FFF774FF0121384600F027
:101D100047F86006040E3846FFF770FF08B1601CF4
:101D2000C4B2FFF766FF701CC6B2082EE7DB0021C5
:101D3000384600F035F8FFF75CFF1DB93846FFF76D
:101D40008DFF02E03846FFF73BFF2046BDE8F081FB
:101D500070B506460C460021304600F021F80025FB
:101D60001AE0E00920B10121304600F02DF803E02F
:101D70000021304600F028F86006040E01213046AC
:101D800000F00EF8FFF735FF0021304600F008F8AC
:101D9000FFF72FFF681CC5B2082DE2DB70BD000005
:101DA00070B505460C4655B924B940210548FEF7E3
:101DB0000AFE05E040210348FEF707FE00E000BFF1
:101DC00070BD0000000C014070B505460C4655B9C9
:101DD00024B980210548FEF7F6FD05E0802103487F
:101DE000FEF7F3FD00E000BF70BD0000000C0140F5
:101DF00010B5044601212046FFF7E6FF01212046E9
:101E0000FFF7CEFFFFF7F5FE00212046FFF7DCFFCE
:101E1000FFF7EFFE00212046FFF7C2FF10BD10B50F
:101E2000044600212046FFF7BBFF00212046FFF7B4
:101E3000CBFFFFF7DEFE01212046FFF7B1FF0121B6
:101E40002046FFF7C1FFFFF7D4FE10BD70B5054671
:101E5000002401212846FFF7B7FFFFF7CAFE012142
:101E60002846FFF79DFFFFF7C4FE08E0601CC4B2E0
:101E7000FA2C04DD2846FFF7D2FF012070BD28466A
:101E8000FFF7BCFE0028F1D100212846FFF788FFAC
:101E90000020F3E72DE9F04180460D4616461F4627
:101EA0004046FFF7A5FF002040EA4500C1B240468A
:101EB000FFF74EFF4046FFF7C9FF00B114E00024D2
:101EC0000AE0315D4046FFF743FF4046FFF7BEFFA3
:101ED00000B109E0601CC4B2BC42F2DB4046FFF72F
:101EE0009EFF0020BDE8F0814046FFF798FF0120EB
:101EF000F8E70000141F0008000000203800000070
:101F0000D40F00084C1F0008380000200004000017
:101F1000E40F00080000000000A24A0400000000D6
:101F20000000000001020304060708090000000089
:101F3000000000000000000001020304010203048D
:0C1F400006070809020406080000000063
:04000005080000ED02
:00000001FF
